{
  "_format": "hh-sol-artifact-1",
  "contractName": "Counter",
  "sourceName": "contracts/Counter.sol",
  "abi": [
    {
      "inputs": [],
      "stateMutability": "nonpayable",
      "type": "constructor"
    },
    {
      "inputs": [],
      "name": "count",
      "outputs": [
        {
          "internalType": "uint256",
          "name": "",
          "type": "uint256"
        }
      ],
      "stateMutability": "view",
      "type": "function"
    },
    {
      "inputs": [],
      "name": "decrement",
      "outputs": [],
      "stateMutability": "nonpayable",
      "type": "function"
    },
    {
      "inputs": [],
      "name": "increment",
      "outputs": [],
      "stateMutability": "nonpayable",
      "type": "function"
    }
  ],
  "bytecode": "0x608060405234801561001057600080fd5b50600080819055506101ba806100276000396000f3fe608060405234801561001057600080fd5b50600436106100415760003560e01c806306661abd146100465780632baeceb714610064578063d09de08a1461006e575b600080fd5b61004e610078565b60405161005b91906100c9565b60405180910390f35b61006c61007e565b005b610076610097565b005b60005481565b60008081548092919061009090610113565b9190505550565b6000808154809291906100a99061013c565b9190505550565b6000819050919050565b6100c3816100b0565b82525050565b60006020820190506100de60008301846100ba565b92915050565b7f4e487b7100000000000000000000000000000000000000000000000000000000600052601160045260246000fd5b600061011e826100b0565b915060008203610131576101306100e4565b5b600182039050919050565b6000610147826100b0565b91507fffffffffffffffffffffffffffffffffffffffffffffffffffffffffffffffff8203610179576101786100e4565b5b60018201905091905056fea26469706673582212203efe54ca898f7b3750bb929e5a875123b15527b9bbc3b886776ae4c61f97445a64736f6c63430008130033",
  "linkReferences": {},
  "deployedLinkReferences": {}
}